:020000040000FA
:0400000080EF00F09D
:020004000000FA
:0A000600FD0E966E020E846E0A0EC7
:1000100027EC01F0000E846E12009692848212008A
:1000200003EC00F0020E846E47EC00F003EC00F0ED
:10003000060E4EEC00F003EC00F0020E4EEC00F069
:10004000000E4EEC00F0000E4EEC00F0000E4EECF8
:1000500000F012000A500A4E60EC00F04EEC00F086
:10006000120003EC00F0020E846E03EC00F0030EAD
:100070004EEC00F0000E4EEC00F0000E4EEC00F0E6
:10008000000E4EEC00F0120053EC00F01200C79C82
:10009000320EC66E949A949694881200C96E9EA6EB
:1000A000FED79E961200000EC96E9EA6FED7000EC9
:1000B000976E200E856E859A9E96C950876E1200A7
:0600C000FF0E0A6E1200A3
:100100000000FF0E0A6EDA0E0B6EA6EC00F010EC8B
:1001100000F000D0000000002AEC00F00B2EFAD70F
:1001200092EC00F0000E996E31EC00F044EC00F01F
:10013000876ED1EC00F0FF0E036EA2EC00F03DECF8
:0C01400001F0F4D7035027EC01F012008E
:04014C008A6AC00EED
:10015000936E280E27EC01F0300EF6EC00F00A0E3C
:100160002EEC01F0280EF6EC00F00A0E2EEC01F059
:10017000280EF6EC00F00A0E2EEC01F00F0EF6EC55
:1001800000F00A0E2EEC01F0010EF6EC00F0020E6B
:1001900027EC01F0060EF6EC00F00A0E2EEC01F052
:1001A00012000C6E0C38D6EC00F00C500F0B076EE2
:1001B0000A0E0760070F260F072404EC01F0120057
:1001C000086EDE5004EC01F0082EFBD71200086E1A
:1001D000100E096EDE5004EC01F0092E04D044EC40
:1001E00001F0100E096E082EF5D71200076E0738C1
:1001F0000F0B8A6E8A9815EC01F007500F0B8A6E70
:100200008A9815EC01F01200076E07380F0B8A6E02
:100210008A8815EC01F007500F0B8A6E8A8815EC5E
:1002200001F00A0E2EEC01F01200000000000000A8
:10023000000000000000000000008A8A00000000AA
:10024000000000000000000000008A9A1200066E04
:10025000FA0E2EEC01F0062EFBD71200046E043AC3
:100260000F0E0414056EF00E041638EC01F01200A7
:10027000000E0406055AFDE21200010EF6EC00F035
:10028000020E27EC01F01200C00EF6EC00F00A0E90
:060290002EEC01F012004B
:0A029600006E000E016E080E026EED
:1002A000000E55EC01F0015012000032012201460F
:1002B000022E55EC01F0120063EC01F0105069ECD5
:1002C00001F071EC01F0689C320E676E9598959C78
:1002D00012006A6EA1AAFED7A19A1200402EFED784
:0202E00012000A
:020000040030CA
:0100000015EA
:0100010013EB
:010002007F7E
:010003007F7D
:01000400F902
:010005008B6F
:010006009168
:01000800FFF8
:01000900C036
:01000A00FFF6
:01000B00E014
:01000C00FFF4
:01000D0040B2
:00000001FF
