:020000040000FA
:0400000080EF00F09D
:020004000000FA
:0A000600FD0E966E020E846E0A0EC7
:1000100038EC01F0000E846E120096928482120079
:1000200003EC00F0020E846E47EC00F003EC00F0ED
:10003000060E4EEC00F003EC00F0020E4EEC00F069
:10004000000E4EEC00F0000E4EEC00F0000E4EECF8
:1000500000F012000A500A4E60EC00F04EEC00F086
:10006000120003EC00F0020E846E03EC00F0030EAD
:100070004EEC00F0000E4EEC00F0000E4EEC00F0E6
:10008000000E4EEC00F0120053EC00F01200C79C82
:10009000320EC66E949A949694881200C96E9EA6EB
:1000A000FED79E961200000EC96E9EA6FED7000EC9
:1000B000976E200E856E859A9E96C950876E1200A7
:0600C000FF0E0A6E1200A3
:100100000000FF0E0A6E0A0E0B6E180E0C6EB7EC96
:1001100000F0070E0D6EFF0E0E6EFF0E0F6E82ECDE
:1001200001F010EC00F000D0000000002AEC00F01C
:1001300087EC01F0000E0F62F7D70E62F5D70D6263
:10014000F3D7A3EC00F0000E996E31EC00F044EC14
:1001500000F0876EE2EC00F0FF0E036EB3EC00F0EF
:0E0160004EEC01F0F4D7035038EC01F0120021
:02016E008A6A9B
:10017000C00E936E280E38EC01F0300E07EC01F043
:100180000A0E3FEC01F0280E07EC01F00A0E3FECDE
:1001900001F0280E07EC01F00A0E3FEC01F00F0E03
:1001A00007EC01F00A0E3FEC01F0010E07EC01F044
:1001B000020E38EC01F0060E07EC01F00A0E3FECDF
:1001C00001F01200136E1338E7EC00F013500F0B20
:1001D000076E0A0E0760070F260F072415EC01F0C3
:1001E0001200086EDE5015EC01F0082EFBD712004D
:1001F000086E100E096EDE5015EC01F0092E04D0C9
:1002000055EC01F0100E096E082EF5D71200076E9E
:1002100007380F0B8A6E8A9826EC01F007500F0BF7
:100220008A6E8A9826EC01F01200076E07380F0BD1
:100230008A6E8A8826EC01F007500F0B8A6E8A8836
:1002400026EC01F00A0E3FEC01F012000000000065
:100250000000000000000000000000008A8A00008A
:100260000000000000000000000000008A9A120058
:10027000066EFA0E3FEC01F0062EFBD71200046E5C
:10028000043A0F0E0414056EF00E041649EC01F04A
:100290001200000E0406055AFDE21200010E07ECE2
:1002A00001F0020E38EC01F01200C00E07EC01F074
:0802B0000A0E3FEC01F0120000
:0802B800006E000E016E080E3D
:1002C000026E000E66EC01F00150120000320122B5
:1002D0000146022E66EC01F0120074EC01F01050A1
:1002E0007AEC01F082EC01F0689C320E676E959812
:1002F000959C12006A6EA1AAFED7A19A1200402E08
:04030000FED7120012
:0C030400000E106E116E126E1200000E42
:100310000F6201D003D00F2E120000D0102A01E28C
:100320001200000E1020106A000E0E6201D003D0E1
:100330000E2E120000D0112A01E21200000E112030
:06034000116A0D06120017
:020000040030CA
:0100000015EA
:0100010013EB
:010002007F7E
:010003007F7D
:01000400F902
:010005008B6F
:010006009168
:01000800FFF8
:01000900C036
:01000A00FFF6
:01000B00E014
:01000C00FFF4
:01000D0040B2
:00000001FF
