:020000040000FA
:0400000080EF00F09D
:020004000000FA
:08000800F2A411008C2AF2940D
:020010001100DD
:0E0012001F02F3CF19F0F4CF1AF02002F350C2
:100020001A22000EF4201B6E1200215009EC00F081
:1000300019C01CF01AC01DF01BC01EF0000E196E76
:100040001A6E1B6E225009EC00F01D5019221E5032
:100050001A22000E1B221200235009EC00F023503C
:100060002102F3501B22F4CF1CF0000E1C221200C0
:100070008A0E216E410E226E15EC00F01BC024F09A
:100080001AC021F019C020F01CC01FF00A0E236E08
:100090002CEC00F01CC025F01BC021F01AC020F091
:1000A00019C01FF02CEC00F01CC026F01BC021F082
:1000B0001AC020F019C01FF02CEC00F01CC027F073
:0A00C00024382526263827261200D2
:0600CA0092802581010E69
:1000D000C26E300EC16EDE0EC06E1200C282C2B29F
:0400E000FED7120035
:0C00E400956A8C6A870ED56EF28AF28E47
:0200F0001200FC
:100100000000CCEC01F0000E046E056E066E076E6A
:1001100000D0BCEC01F028C004F000D0BCEC01F031
:1001200028C005F000D0BCEC01F028C006F000D0DB
:10013000BCEC01F028C007F000D0840E046224D08B
:10014000820E056221D0420E06621ED0220E076288
:100150001BD000D0000E286E63EC02F04F0E2AEC8C
:1001600002F0BCEC01F0810E286202D0CDEF00F06D
:10017000500E2AEC02F0210E286201D038D0110E68
:100180002862E8D780EF00F063EC02F0580E2AEC0A
:1001900002F0FF0E15EC01F0BCD7030E136EFF0E3C
:1001A000146EFF0E156E1DEC03F065EC00F07EEC96
:1001B00002F0520E2AEC02F0CFEC02F000D0000068
:1001C00000006EEC00F0C45098EC02F0C35098ECC4
:1001D00002F000002C0E54EC02F022EC03F0000EB2
:1001E0001562EDD71462EBD71362E9D7B3D7000ECF
:1001F000996E9BEC02F0030E136EFF0E146EFF0E51
:10020000156E1DEC03F0500E2AEC02F0CFEC02F05C
:1002100000D0DAEC02F022EC03F0000E1562F9D700
:100220001462F7D71362F5D795D703504DEC02F05F
:020230001200BA
:0E0232000F01538D000196688D6A0F0E966EB7
:10024000900E4DEC02F0000E286E1200F00E966E2D
:10025000100E4DEC02F01200000E956E84CF83FF5D
:10026000100E4DEC02F00F0E836201D0F5D7050E93
:100270004DEC02F00F0E836201D0EED7100E8356C4
:10028000000E286E83CF28F01200000E956E84CFEA
:1002900083FF100E4DEC02F0F00E836201D0F5D713
:1002A000050E4DEC02F0F00E836201D0EED7F10E98
:1002B0008356000E296E83CF29F01200000E00260F
:1002C0002950282612002A0E2AEC02F0120063ECB4
:1002D00002F0880E286202D0310E4BD0480E286200
:1002E00002D0320E46D0280E286202D0330E41D002
:1002F000180E286202D0460E3CD0840E286202D02E
:10030000340E37D0440E286202D0350E32D0240E7F
:10031000286202D0360E2DD0140E286202D0450E6F
:1003200028D0820E286202D0370E23D0420E2862D7
:1003300002D0380E1ED0220E286202D0390E19D0FB
:10034000120E286202D0440E14D0810E286202D010
:10035000410E0FD0410E286202D0300E0AD0210E7D
:10036000286202D0420E05D0110E28620000430E12
:1003700000D02AEC02F0120019EC01F02CEC01F094
:1003800026EC01F045EC01F05EEC01F0FF0E4DECC7
:0803900002F063EC01F0120021
:080398008A6AC00E936E280E64
:1003A0004DEC02F0300E1CEC02F00A0E54EC02F0A0
:1003B000280E1CEC02F00A0E54EC02F0280E1CEC85
:1003C00002F00A0E54EC02F00F0E1CEC02F00A0EC2
:1003D00054EC02F0010E1CEC02F0020E4DEC02F0A7
:1003E000060E1CEC02F00A0E54EC02F012002A6E0B
:1003F0002A38FCEC01F02A500F0B0B6E0A0E0B6032
:10040000070F260F0B242AEC02F012000C6EDE50B0
:100410002AEC02F00C2EFBD712000C6E100E0D6EA3
:10042000DE502AEC02F00D2E04D06AEC02F0100E21
:100430000D6E0C2EF5D712000B6E0B380F0B8A6E5B
:100440008A983BEC02F00B500F0B8A6E8A983BECBB
:1004500002F012000B6E0B380F0B8A6E8A883BEC91
:1004600002F00B500F0B8A6E8A883BEC02F00A0EEA
:1004700054EC02F012000000000000000000000038
:100480000000000000008A8A000000000000000058
:100490000000000000008A9A12000A6EFA0E54EC66
:1004A00002F00A2EFBD71200086E083A0F0E08144D
:1004B000096EF00E08165EEC02F01200000E08063F
:1004C000095AFDE21200010E1CEC02F0020E4DEC86
:1004D00002F01200C00E1CEC02F00A0E54EC02F006
:0204E000120008
:0E04E200FD0E966E020E846E010E4DEC02F0C1
:1004F000000E846E120096928482120071EC02F05B
:10050000020E846EB3EC02F071EC02F0060EBAEC4F
:1005100002F071EC02F0020EBAEC02F0000EBAEC3E
:1005200002F0000EBAEC02F0000EBAEC02F012007B
:10053000BAEC02F0120071EC02F0020E846EB3EC21
:1005400002F071EC02F0030EBAEC02F0000EBAEC0D
:1005500002F0000EBAEC02F0000EBAEC02F012004B
:10056000BFEC02F01200C79C320EC66E949A9496AD
:1005700094881200C96E9EA6FED79E961200000EA9
:10058000C96E9EA6FED7000E976E200E856E859AC8
:100590009E96C950876E1200FF0E0E6E1200688C78
:1005A000220E676E9598959C12006A6EA1AAFED7DE
:1005B000A19A12009696848696948484030E54EC35
:1005C00002F08494100E116EB0EC02F01126B0EC23
:1005D00002F012261150D5EC02F01250D5EC02F0C8
:0E05E00096948484969684969696848612004D
:0205EE00006E9D
:1005F000000E016E080E026E000E01EC03F00150B9
:100600001200003201220146022E01EC03F012001A
:100610000FEC03F0105015EC03F01DEC03F0689C98
:10062000320E676E9598959C12006A6EA1AAFED74D
:0A063000A19A1200402EFED712001E
:06063A00000E166E176EA3
:10064000186E1200000E156201D003D0152E120094
:1006500000D0162A01E21200000E1620166A000EC3
:10066000146201D003D0142E120000D0172A01E228
:0C0670001200000E1720176A130612007B
:020000040030CA
:0100000015EA
:0100010013EB
:010002007F7E
:010003007F7D
:01000400F902
:010005008B6F
:010006009168
:01000800FFF8
:01000900C036
:01000A00FFF6
:01000B00E014
:01000C00FFF4
:01000D0040B2
:00000001FF
